:020000040800F2
:10000000F8FF01208D960A0829970A08F14405088F
:1000100029970A0829970A0829970A08000000006A
:1000200000000000000000000000000029970A08FE
:1000300029970A080000000029970A08CD5A0408E9
:1000400029970A0829970A0829970A0829970A0868
:1000500029970A0829970A08611E0408891E0408BE
:10006000B11E0408D91E0408011F0408BD030000C6
:10007000D1030000E5030000F90300000D040000B7
:10008000210400003504000029970A0829970A086E
:1000900029970A0829970A0829970A08291F040896
:1000A00029970A08FD3B040829970A08ED3B040834
:1000B0000D3C04081D3C04082D3C0408FD100408F8
:1000C000F1100408311104082511040829970A08C1
:1000D00029970A08A93C0000F93D0000653F00008F
:1000E000691F040829970A0800000000E93C040879
:1000F000C13C0408F93C0408B13C04084904000070
:1001000029970A08752F04083D3C040829970A0816
:10011000D5400000454200004D3C0408B5B909082F
:100120005D040000710400008504000099040000D3
:10013000AD04000029970A0829970A0829970A0898
:1001400000000000000000000000000000000000AF
:10015000C1040000D5040000E9040000B54300001C
:10016000651104085911040829970A0829970A08F3
:1001700029970A0829970A0829970A080000000009
:1001800029970A0829970A08254500009546000086
:1001900029970A0829970A0829970A0829970A0817
:1001A00029970A0829970A0829970A0829970A0807
:1001B00029970A0829970A0829970A089911040813
:1001C0008D11040829970A0829970A0829970A080F
:1001D00029970A0805B0090829970A0829970A08E3
:1001E00029970A0829970A0829970A0829970A08C7
:1001F00029970A0829970A0829970A0829970A08B7
:1002000029970A0829970A0829970A0829970A08A6
:10021000093D0408193D0408293D040829970A08E6
:1002200029970A0829970A0829970A080000000058
:10023000792F040829970A080000000029970A0866
:1002400029970A0829970A0829970A0829970A0866
:1002500029970A0829970A0829970A0829970A0856
:1002600029970A0829970A0829970A0829970A0846
:1002700029970A0829970A0805480000000000008D
:1002800029970A080000000029970A0800000000CA
:080290000000000029970A0894
:020000040804EE
:10000000114A037A0168D35C10B4CC58CA1824F0A2
:100010000104CC501368DB07FCD4037D1F2B09D9E6
:10002000203B20225DF8044B02FA03F343F018034F
:10003000CB60704720225DF8044B02FA03F343F0D3
:1000400018038B60704700BF90560B084368426DE1
:1000500030B49A61EFF31182502383F31288416820
:10006000D2B2856C0B68046D23EA050323430B6051
:1000700082F31188436981681A68096822F00102D5
:10008000D0E908541A60826A1D605C615A60D0E948
:100090000B429C60DA600023B0F86C2030BCCA626E
:1000A00003777047002A4FEA014C034630B508BF7A
:1000B000E64600F1C00514BF8E468C460024196840
:1000C0000C3353F8042C43F8084C41EA0C0142EA83
:1000D0000E02AB4243F80C1C43F8042CEFD1D0F8CD
:1000E000C03043EA0E03C0E93144C0F8C03030BD2F
:1000F00010B40C4C6368002B11DD002004F1080CD7
:100100000146DCF8AC3003F1C00259600C33934275
:10011000FBD1013063680CF5867C8342F1DC5DF82D
:10012000044B704704000020F0B5404C04EB401332
:1001300093F8543403B9F0BD3D4B42011D7893F858
:1001400001C065450CD00CEB4C0E03EBCE0E9EF8B7
:1001500004604FEA4C0E771E012F5AD9032E52D05D
:100160002244A2F83814EFF31181902383F312880C
:1001700092F83A34C9B2B2F8380443EA4003002096
:100180009BB282F83A0481F311881909207881EA38
:1001900013215940D8B1C9431B01D2F8505401244E
:1001A000D2F83C049BB201F00F01D5F8AC2084409A
:1001B0000B4302F1C000590013F4004F8BB202D17F
:1001C0005168214351600C329042F4D1F0BDD2F815
:1001D0003C041B01D2F8502401F00F0110309BB2F7
:1001E0000124D2F8AC200B43844002F1C000590036
:1001F00013F4004F8BB202D15168214351600C328D
:100200009042F4D1F0BD0CF1010606F00306AE42B7
:10021000A6D0E64403EBCE030344597C00299FD0CB
:10022000A318012083F83A049AE700BF04000020D5
:10023000081D0024704700BF024B03EB401393F8E6
:100240005504704704000020D0E90920131A5842D1
:100250005841704790F8573830B53BB990F8551869
:10026000012490F85638DAB2914200D830BD04FA31
:1002700003F2B0F85E5801332A43A0F85E28F2E793
:100280000379024613F0010006D0D2E90731D268A3
:100290005B1A013A03EA0200704710B5037904467D
:1002A00013F001030ED0FFF7EBFF034650B1226AB3
:1002B0006369E1689B5C0132B2FBF1F0DBB201FBE8
:1002C00010222262184610BD03799B070AD5436AA3
:1002D0008269D154436A02690133B3FBF2F102FB34
:1002E00011334362704770470171704703790146CB
:1002F00013F0020007D00B69D1E90921013B521A22
:100300001A40D2B2981A70470C4B4FF0E02C10B440
:100310005A6EDCF81800596E8A42F9D1996E8842FB
:10032000F6D8DC6E4FF47A7101FB04F31B1AB3FBB1
:10033000F4F35DF8044B01FB02307047081D002404
:1003400010B584464FEA810E102312F4004F4FEA95
:10035000420214BF0E240724013B92B2CCF80040A5
:10036000F444F2D100EB81128C010351122042F8C7
:10037000213010BD10B584464FEA810E0424130BC2
:10038000013C4FEA021203EB430392B203F118035C
:10039000CCF80030F444F2D100EB01130A01845090
:1003A000062043F8214010BD704700BF704700BFD2
:1003B00000EB4000024B03EBC00393F84905704784
:1003C00004000020064B93F8F825824206D900EB82
:1003D000400003EBC003D3F84C0570470020704782
:1003E000040000201D4B93F8FC25AAB3D3F8381560
:1003F00009B100200860012A2ED0D3F8501509B1A8
:1004000000200860022A27D0D3F8681509B100201F
:100410000860032A20D0D3F8801509B100200860B5
:10042000042A19D0D3F8981509B100200860052ACC
:1004300012D0D3F8B01509B100200860062A0BD0FD
:10044000D3F8C81509B100200860072A04D0D3F8F2
:10045000E0350BB100221A60704700BF0400002095
:100460001D4B93F8FC25AAB3D3F8381509B1002029
:100470000860012A2ED0D3F8501509B10020086079
:10048000022A27D0D3F8681509B100200860032A92
:1004900020D0D3F8801509B100200860042A19D0B3
:1004A000D3F8981509B100200860052A12D0D3F8B6
:1004B000B01509B100200860062A0BD0D3F8C81582
:1004C00009B100200860072A04D0D3F8E0350BB149
:1004D00000221A60704700BF04000020C34B1B7845
:1004E000002B40F04D81C24B93F8FC25002A00F010
:1004F000478193F8481530B500294ED1D3F8381507
:100500000020012A086047D993F86015002966D1B8
:10051000D3F850150020022A08603DD993F87815C9
:10052000002940F0C980D3F868150020032A08602C
:1005300032D993F89015002940F0E080D3F8801567
:100540000020042A086027D993F8A815002940F054
:10055000F680D3F898150020052A08601CD993F876
:10056000C015002940F00D81D3F8B0150020062AEF
:10057000086011D993F8D815002959D1D3F8C815B6
:100580000020072A086007D993F8F025002A72D1C5
:10059000D3F8E03500221A6030BDD3F83C25910A2B
:1005A000A1F58011522940F20D814FF0FE0CEFF3BE
:1005B0001181502080F312888E4C4FF02C0E556A1A
:1005C000C9B250690EFB0C4C013540F00100CCF86B
:1005D0009850506181F3118893F8FC258EE7D3F889
:1005E0005425910AA1F58011522940F2EF804FF075
:1005F000FE0CEFF31181502080F312884FF02C0E87
:10060000556A7C4CC9B2506901350EFB0C4440F070
:100610000100C4F89850506181F3118893F8FC25CB
:100620000020D3F85015022A08603FF677AFB3E7F1
:10063000D3F8CC25910AA1F58011522900F2E2806D
:100640006D4810F801C0EFF31181502080F312883B
:100650004FF02C0E556A674CC9B2506901350EFB3C
:100660000C4440F00100C4F89850506181F31188A7
:1006700093F8FC2582E7D3F8E425910AA1F58011CF
:10068000522900F2C2805C4810F801C0EFF31181DA
:10069000502080F312884FF02C0E556A554CC9B289
:1006A000506901350EFB0C4440F00100C4F898502D
:1006B000506181F311886BE7D3F86C25910AA1F59D
:1006C0008011522940F286804FF0FE0EEFF3118127
:1006D000502080F312884FF02C0C556A454CC9B25B
:1006E000506901350CFB0E4440F00100C4F89850ED
:1006F000506181F3118893F8FC2514E7D3F8842521
:10070000910AA1F58011522968D94FF0FE0CEFF340
:100710001181502080F312884FF02C0E556A354C11
:10072000C9B2506901350EFB0C4440F00100C4F819
:100730009850506181F3118893F8FC25FEE6D3F8B8
:100740009C25910AA1F5801152294BD94FF0FE0C3E
:10075000EFF31181502080F312884FF02C0E556A70
:10076000244CC9B2506901350EFB0C4440F0010025
:10077000C4F89850506181F3118893F8FC25E8E69D
:100780007047D3F8B425910AA1F58011522935D9C3
:100790004FF0FE0CEFF31181502080F312884FF0E0
:1007A0002C0E556A134CC9B2506901350EFB0C442E
:1007B00040F00100C4F89850506181F3118893F81B
:1007C000FC25D1E60C4810F801C0F0E60A4810F804
:1007D00001C00EE7084810F801E077E7064810F876
:1007E00001C094E7044810F801C0B1E700000024FC
:1007F00004000020081D002420C30A08044810F843
:1008000001C0C7E74FF0FE0C1DE74FF0FE0C3DE7BF
:1008100020C30A0800EE100AB8EE400A704700BF75
:10082000BCEEC00A10EE103A98B2704707280AD8FA
:100830004FF4B472054B02FB0033B3F80006B0FA74
:1008400080F0400970470020704700BF040000207E
:10085000072807D8044B4FF4B471012201FB003381
:1008600083F80226704700BF04000020072808D83C
:10087000044B03EB401393F8542412B1012283F884
:100880003A24704704000020072808D8054B03EBE2
:100890004013B3F83804B0FA80F0400970470020E4
:1008A000704700BF04000020054B93F8F8258242F2
:1008B00004D903EB4013D3F8440470470020704779
:1008C0000400002038B5074B14460D46D3F8043316
:1008D0001B6A984702464FF40073002012682A6092
:1008E000238038BD081D002408B5064BD3F8043317
:1008F00023B15B699847013840B208BD4FF0FF3023
:1009000008BD00BF081D0024002070472DE9F041FC
:100910000BB316460F4603EB0208124CD4F80453EF
:10092000002339463046AD681A46A8470028F5D05E
:10093000D4F80433002BFBD05B6998470028F7D02C
:10094000013607F50077B045E8D1636E0020C4F8A2
:100950000833BDE8F081034C0020636EC4F808330F
:10096000BDE8F081081D00242DE9F0413BB3164697
:100970000F4603EB0208154C04E0D4F8041319B138
:100980004B699847D4F8041300230D693046394663
:100990001A46A8470028F0D1D4F80433002BFBD026
:1009A0005B6998470028F7D0013607F50077B04516
:1009B000E8D1636E0020C4F80833BDE8F081034C31
:1009C0000020636EC4F80833BDE8F081081D0024E0
:1009D000002070470020704700207047034B93F8B9
:1009E0003003003818BF0120704700BF081D0024E5
:1009F000816D03460A6A52681278FF2A09D090F87E
:100A0000F020013A52B2002A80F8F02006DD0120E1
:100A100070470822002083F8F02070470B6A0022FC
:100A200002205B681A707047836D1B6A5B681B78D5
:100A3000FF2B0AD190F9F030002B03F1FF3280F840
:100A4000F020D4BF0220012070470020704700BF73
:100A5000836D1B6A5B681B78FE2B0CD0FF2B08D1C3
:100A600090F9F0305A1E002B80F8F02001DD0120B3
:100A70007047022070470020704700BF10B5044641
:100A80006AF040F80146204689B2BDE81040FFF701
:100A90004BBB00BF38B50B4D00EB400005F5A7631D
:100AA000C40003EBC003254493ED027AD3ED037A2F
:100AB000E7EE007AB0EE670A6AF024F8D5F8383528
:100AC000186038BD0400002002692DE9F843C368AE
:100AD00012EA030828D005460E464FF00047B8FA40
:100AE00088F327FA03F21B3BD24308EA02082A6183
:100AF000042B16D8DFE803F03B30251A0300B36A55
:100B0000002B3FD003F1FF3900231FFA89F9B362AC
:100B1000746A34B123682046494698476468002CBB
:100B2000F8D1B8F1000FDAD1BDE8F8837068002879
:100B3000F7D0696B036889B29847B8F1000FCED13E
:100B4000F2E7B0680028ECD0A96B036889B2984737
:100B5000B8F1000FC3D1E7E7F0680028E1D0E96BF6
:100B6000036889B29847B8F1000FB8D1DCE7306963
:100B70000028D6D0296C036889B29847B8F1000FD5
:100B8000ADD1D1E7EB6A1FFA83F9C1E78069B430D0
:100B900055F0D2BB10B590F83DE0BEF1020F76D013
:100BA000144690F83D208446012A02D1022280F8A2
:100BB0003D200C2921D8DFE801F007202020222049
:100BC00020203A2020205200DCF824003449DCF8B0
:100BD0000020C1633349C16490F8341001290CD05E
:100BE000012180F8341090F83510012952D00022EC
:100BF0004FF4006380F834204365002010BDDCF81A
:100C000028002749DCF80020C1632649C16490F818
:100C100034100129F1D0012180F8341090F83510FA
:100C20000129E4D13832214656F072F8E5E7DCF8C4
:100C30002C001B49DCF80020C1631A49C16490F8FC
:100C400034100129D9D0012180F8341090F83510E2
:100C50000129CCD13C32214656F05AF8CDE7DCF8D8
:100C600030000F49DCF80020C1630E49C16490F8E0
:100C700034100129C1D0012180F8341090F83510CA
:100C80000129B4D14032214656F042F8B5E75FFA67
:100C90008EF010BD3432214656F03AF8ADE700BF71
:100CA00031830908D9820908F8B5A0F507642379CA
:100CB000DB0725D5657994F8543805F001073D46E2
:100CC000FBB1D4F848341A68D36A5B08536294F8CD
:100CD000583823B1B4F862380133A4F8623885F08B
:100CE0000101606C5FF038FC012384F85738002361
:100CF00084F8553884F85638A4F85E3884F85438A7
:100D0000F8BD94F85768012E03D194F8553884F84B
:100D100056382046FFF79EFA4EB9012385EA0301B3
:100D200084F85738606CBDE8F8405FF015BC0023CC
:100D3000394684F85738F5E738B5A0F5076400223E
:100D4000344D606C03685A62A1F12903302B31D80D
:100D500095F89F3495F8A0140133DBB2012B85F888
:100D60009F3409D9B4F85E3885F89F245B08A4F84D
:100D70005E384B1C85F8A03495F8A0240023082A7F
:100D8000A4F8603815D185F8A034B5F8A234013341
:100D90009BB2032BA5F8A23408D92379DB0705D52C
:100DA000E36A94F85E0843B3216B98470023A4F8E4
:100DB0005E3838BD5B396C290CD8B4F85E3885F8DC
:100DC0009F245B0843F08003A4F85E3895F8A034B4
:100DD0000133CFE794F85938002BCDD1012185F8A4
:100DE0009F34A5F8A234802384F85918A4F85E38FB
:100DF00085F8A0145FF0B0FBBEE7E3696269D054E8
:100E0000E369E2680133B3FBF2F102FB1133E36102
:100E1000CCE700BF081D002438B557F05DF80D4938
:100E20000D4CD1F8FC20A4FB00400C4D42F0807228
:100E30000B4B800CC1F8FC204FF060420949E8667A
:100E4000C2F8B01F00225A601A6842F001021A600C
:100E500038BD00BF00ED00E083DE1B43081D002409
:100E6000001000E055CEACC570B505460A26084C0A
:100E7000013E00D170BD94F9000019F04DFB031E36
:100E800004DB6178EA185172A278EA540434EFE77F
:100E900073C30A0810B50E4CD4F8A4344BB194F8BF
:100EA000B0249988186802F001031B0101FA03F3CA
:100EB00083615EF0E9F9D4F80433002BFBD05B6961
:100EC00098470028F7D0636E0020C4F8083310BD9F
:100ED000081D00242DE9F041274D084611461A4609
:100EE000D5F860433CB12668A3883469234095F85F
:100EF0005D4384B38BBBC3062FD10123C5F8E40443
:100F0000C5F8EC24C5F8D4344FF40073C5F8E834C0
:100F100060F034F808BBD5F8D434002BFBD1D5F8F9
:100F2000346541F20D17D5F8F044DFF850803604EF
:100F3000A66041F28832E3680D21204603EA0803E7
:100F40003B43E36059F072FF58B1D5F824350343B1
:100F5000C5F82435ECE7002BCDD14FF0FF30BDE8CC
:100F6000F081636903F4F053B3F5006FE0D16B6E69
:100F7000C5F80833BDE8F081081D0024C0E0FEFF7D
:100F80002DE9F041214D10460A46D5F860433CB1A9
:100F90002668A1883469214095F85D437CB381BB04
:100FA000002160F067F860BBD5F8D834002BFBD186
:100FB000D5F8346541F20D17D5F8F044DFF85080CC
:100FC0003604A66041F28832E3680D21204603EA28
:100FD00008033B43E36059F029FF28B1D5F82435D5
:100FE0000343C5F82435ECE7636903F4F053B3F524
:100FF000006FE6D16B6EC5F80833BDE8F0810029BB
:10100000CED14FF0FF30BDE8F08100BF081D0024B5
:10101000C0E0FEFF30B597B000231F4C0DF1070272
:101020000890084608218DF8143007938DF8283071
:101030000B938DF83C301593184D84F8FC136944DC
:10104000099004F5597006959FED117BCDE90232A8
:10105000CDE910330122CDE91233022304928DF839
:1010600050200E938DED0C7B54F0B8FCD4F8643313
:10107000186A0028FCD19DF80730FE2B03D0FF2B07
:101080000CBF0120022017B030BD00BFAFF30080BD
:101090000000000000000000081D0024510A0408A0
:1010A00030B40D4CBFF34F8F0C4BC3F85C42BFF311
:1010B0004F8FBFF36F8F0A4B0A4D03F13000DA797F
:1010C0002AB1597934F8112092B225F811200C3345
:1010D0008342F4D130BC7047E0FD002400ED00E015
:1010E00074220024C0E7002400207047704700BF2E
:1010F000014856F0ADBB00BFE0220024084810B400
:10110000D0F8D835D0F80C4699691A682CB1234626
:1011100000F5BB605DF8044B18475DF8044B704761
:10112000081D0024014856F093BB00BF442300244F
:10113000084810B4D0F83C36D0F8704699691A685F
:101140002CB1234600F23C605DF8044B18475DF873
:10115000044B7047081D0024014856F079BB00BFBE
:10116000A8230024084810B4D0F8A036D0F8D446FC
:1011700099691A682CB1234600F5D4605DF8044BD8
:1011800018475DF8044B7047081D0024014856F0CD
:101190005FBB00BF0C240024084810B4D0F804370B
:1011A000D0F8384799691A682CB1234600F20470C8
:1011B0005DF8044B18475DF8044B7047081D002488
:1011C0002DE9F04784B08DF80F30431C00F09F806C
:1011D0000328044600F39B80824E642303FB0063D4
:1011E000D3F8D805002800F0928093F81956202DE6
:1011F00040F0878093F81856012D00F08280012579
:10120000D6F8507783F8185604E0D6F85037DB1B31
:10121000192B66D8856915F40045F6D14FF0640A9C
:10122000714B00974FEA41080AFB04FA41460AEB6A
:101230000309B24421234846CAF80C568AF81936E5
:1012400040238AF81A360DF10F03CAF81C56CAF863
:10125000FC350123AAF802360A2360F08FFC00282F
:1012600073D1BAF802369BB2FF2B40F29180DAF8C4
:10127000D815FF235D48AAF800364B685C4A034046
:1012800043EA08031A434A60642505FB046505E048
:10129000B5F802369BB2002B00F08C803A460A214A
:1012A000484656F013FB60BBD5F8FC35D5F8D81589
:1012B00013F8010BB5F800268862C5F8FC35013A31
:1012C000B5F8023692B2013BA5F800269BB2A5F80C
:1012D0000236B5F802369BB2002BD9D0002AD7D1FE
:1012E0001EE064232020002103FB0463D3F81C26A6
:1012F00083F818160243C3F81C2683F8190683F8EE
:101300001A16B6F8543701339BB2A6F854370020AA
:1013100004B0BDE8F087D6F85037DB1B0A2B27D87E
:101320008A6912F08002F6D0B5F802369BB2FF2B24
:101330000ED94B682D4A13402D4A43EA08031A433D
:10134000FF23A5F800364A60A2E78AF81856D8E7C6
:10135000B5F8023625489BB24A68A5F80036DBB2DC
:10136000024048EA0343134343F000734B608FE7A6
:101370006423202103FB0464D4F81C3684F8182667
:101380000B43C4F81C3684F8191684F81A26B8E7FB
:10139000BAF80236DAF8D8159BB214484A68AAF8A7
:1013A0000036DBB2024048EA0343134343F00073C4
:1013B0004B6069E73946484660F08CFB03460028DD
:1013C0009FD1D5F8D82520240A48D461516801401E
:1013D0000120516085F8194685F8183685F81A36C7
:1013E00096E700BF081D0024E0220024009C00FCBA
:1013F0000000FF0100E800FEB0F1FF3F00F00A81AD
:1014000003282DE9F047064682B000F3A3808F4CF5
:10141000642000FB0640D0F8D875002F00F09A80B9
:1014200090F81956202D40F08F8090F81856012D15
:1014300000F08A80012580F81856D4F85057B86912
:1014400010F4004909D0D4F85007401B192800F2C5
:101450008580B86910F40049F5D14FF0640A7C4FDB
:101460004FEA41080A990AFB06FA00955744A2443C
:10147000CAF8FC1522213846CAF80C968AF81916C3
:1014800040218AF81A164146CAF81C96AAF8023674
:101490000A2360F0E7FA002840F0BE80BAF802366E
:1014A0009BB2FF2B6BD8BAF80236DAF8D8159BB28C
:1014B00068484A68AAF80036DBB2024048EA0343AB
:1014C0001343654A1A434A604FF0640909FB064911
:1014D00004E0D4F850375B1B0A2B26D88A6912F037
:1014E0000402F6D04A6AD9F8FC351A70B9F8023607
:1014F000D9F8FC25013B01329BB2C9F8FC25A9F8BB
:101500000236B9F80036B9F80226013B92B29BB216
:10151000A9F800360BB9002A3FD1B9F802369BB2C0
:10152000002B7CD0D9F8D815D8E76423202003FB02
:101530000643D3F81C1683F818260143C3F81C167B
:1015400083F8190683F81A26B4F8543701339BB28E
:10155000A4F85437002002B0BDE8F08764232020AF
:10156000002103FB0643D3F81C2683F81816024318
:10157000C3F81C2683F8190683F81A16E4E7DAF88C
:10158000D815FF233348AAF800364B68334A034086
:1015900043EA08031A434A6096E7D9F8D81504E0ED
:1015A000D4F850375B1B0A2B24D88A6912F08002CA
:1015B000F6D0B9F802369BB2FF2B0BD94B68284AFC
:1015C0001340284A43EA08031A43FF23A9F80036C8
:1015D0004A60A2E7B9F8023621489BB24A68A9F8E6
:1015E0000036DBB2024048EA0343134343F0007382
:1015F0004B6092E76423202103FB0646D6F81C3695
:1016000086F818260B43C6F81C3686F8191686F895
:101610001A2699E7002070478AF8189694E7294619
:10162000384660F057FA034600288DD1D9F8D825FE
:1016300020240D48D461516801400120516089F88F
:10164000194689F8183689F81A3684E7081D0024E7
:10165000E0220024009800FC002400820024FF8186
:10166000009C00FC0000FF0100E800FE2DE9F041B5
:101670000468D4E90435A8611A7D1F681F2A49D976
:10168000203A20212E6801FA02F242F01802FA6094
:101690002A7D1F2A48D9203A202101FA02F242F07D
:1016A0001802F2606A6800215868016038461160CB
:1016B000116841F01001116093F80880A269414659
:1016C00064F01AF82D7AE2693046294664F014F87D
:1016D000226A63689468184A12F80800515D5A68D3
:1016E0006FF30F0222435A603A5842F001023A5017
:1016F000725842F0010272509A6842F440429A6075
:101700001A6842F001021A601A6842F400721A6004
:10171000BDE8F08120212E6801FA02F242F01802A1
:10172000BA602A7D1F2AB6D8202101FA02F242F0BF
:101730001802B260B6E700BF90560B08D3B20F2B69
:101740001FD8114B00B503F17E0E02E00333734541
:1017500014D093F800C08445F8D193F801C08C45AB
:10176000F4D102EB42020948997800EB820304307D
:10177000D96000EB820019715DF804FB00205DF870
:1017800004FB0020704700BF98C30A080000002433
:1017900010B40C4C002304F5EB6C01E0152B0CD0BD
:1017A00003EB430201331CF802108142F6D11444CA
:1017B00094F95A075DF8044B70474FF0FF305DF81D
:1017C000044B7047081D002430B5114D002305F16E
:1017D000F80C02E001331A2B18D05CF83340844235
:1017E000F8D10CEBC30EDC009EF804E08E45F1D17D
:1017F00002EB4202074B254403EB8201043395F8C8
:10180000FD4003EB8200CC600C7130BD002030BD88
:1018100020C30A0800000024F0B1002310B50446DC
:101820000E4894F804E000F5EB6C01E0152B11D0A4
:1018300003EB430201331CF802107145F6D1831803
:101840006179206893F95A27D3B20F2B02D8BDE8EB
:101850001040B9E7002010BD00207047081D00248B
:1018600001380E4B0E4A00EBC000D2F8D81003EB43
:10187000800310B4D3F8C43083B00A4CA34214BF21
:10188000022301231943C2F8D810D2F8D8201340FC
:101890000193019B03B05DF8044B704700000024E6
:1018A00000440258000002400138F8B500EBC000C7
:1018B000124C1D46124B04EB800417460E46D4F81A
:1018C000C400984214BFA120A02060F08FF9B4F9A1
:1018D000DA00B909C4F8D460C4F8DC5060F096F8B6
:1018E000B4F9DA30002B07DB03F01F0001225B099B
:1018F0000449824041F82320F8BD00BF00000024C5
:101900000000024000E100E0234B5B68C3F30803E2
:1019100010B4DBB9EFF31183C3B9204B4FF0E02CC7
:101920005A6EDCF81800596E8A42F9D1996E8842D5
:10193000F6D8DC6E4FF47A7101FB04F3181AB0FB91
:10194000F4F05DF8044B01FB02007047EFF31181E6
:10195000102383F312884FF0E0229469136913F483
:10196000803F0E4B03D00120C3F898079469586E4E
:10197000C9B2D3F8982781F31188D96E4FF47A73DE
:10198000024403FB01F0001B5DF8044BB0FBF1F0D7
:1019900003FB0200704700BF00ED00E0081D0024BB
:1019A000BE4803780BB90120704743682DE9F04F1A
:1019B000002BDFF8109387B0D9F8646018DD00F1D0
:1019C00008050024B649D5F8F430BFF34F8F03F56E
:1019D0009072C1F85C3220339342FAD1BFF34F8F3B
:1019E000BFF36F8F0134436805F586759C42EADBCF
:1019F00090F8F815AB4A0491A2FB0612AA4BAB4E25
:101A00005209DFF8C4A2A3FB0213DB0803EB830334
:101A1000A2EB4303DAB206EB830B06F538730592AB
:101A2000009300239846049B984500F01481DAF84F
:101A30001830DAF80470D3E93D45FFF765FF9C499B
:101A400099F89DE7012269180190BEF1540F99F8A9
:101A50009C0702FA07F204EB410104EB400301D1B9
:101A6000A9F8A607994240F26A811F88174200F040
:101A70005F815F88174200F070819F88174200F0F5
:101A80006E81DF8808331742ECD11C1B99424FEA64
:101A9000640440F25481281B452828BF452003EBED
:101AA0004000834280F04F8100251F46AC46294606
:101AB000CDE9028EB3F800E00EEA020E8E451CD18D
:101AC000B3F802E00EEA020E714540F01A81B3F855
:101AD00004E00EEA020E714540F01581B3F806806D
:101AE000083308EA0208414508D1984209D9B3F8F9
:101AF00000E00EEA020E8E45E2D00233984200F278
:101B0000E580BCF1110FDDE9028E40F21C81DCF1B1
:101B1000150200F118816749D9F8B007D1F80433EC
:101B20009C4238BFC1F80443019C231A002B14DBEC
:101B3000614B03449C4201D923460533C9F8B037B1
:101B4000D1F80433052B40F20C81053BDBB289F858
:101B50009C374FF0FF33C1F804333AB105FA02F273
:101B6000CCF1140C012505FA0CF51543534BC5F3C4
:101B7000C43203EB8202D2F8C80105F01F0203EB66
:101B80008202D2F8C811C5F34412C5F3842503EBD1
:101B9000820241EA0031D2F8C82103EB850341EA11
:101BA0000211D3F8C83141EA0321454B81EA1122E1
:101BB000D3F81C3A82EA1212013302F00F020F2A04
:101BC00040F0A380B1F5803F80F09F80BEF1540FBC
:101BD0004FEA111147D03A4AB1F5606FC2F81C3A8A
:101BE0004DD0009B998196F858300598834210D0CB
:101BF000DBF8082033689B1A33607368DBF8302009
:101C00009B1A73600023CBF80830CBF8303086F88D
:101C10005800336801333360DBF808300133CBF808
:101C200008304FF6FF73994207D173680133736030
:101C3000DBF830300133CBF83030009B08F101087D
:101C40005C360BF15C0B1433B8F1080F0AF1200A73
:101C500000937FF4E8AE0123194A012082F8183B73
:101C600007B0BDE8F08FB9F8A027B1F5606F02F1B9
:101C70000102A9F8A027124AC2F81C3AB1D199F87A
:101C8000013003EB430309EBC30343445B7C0D2B9F
:101C9000A7D18023009A9377A5E700BF0400002016
:101CA00000ED00E01F85EB51CDCCCCCC30180020EE
:101CB000C7FFFF7F0000002420A1070020C30A08FF
:101CC000FC100020081D00243C040020A3EB070E9C
:101CD000254F33F8021C4FEA6E0E11400EF1010E33
:101CE00087FB0E87A7EBEE774FF0010E012FB8BFF1
:101CF0000127BD40BC44013F0EFA07F73D431F4694
:101D0000D8E60433FAE60633F8E6BEF1540F04D100
:101D1000B9F8A0270132A9F8A027144A4FF6FF719D
:101D2000C2F81C3AD2F8183A0133C2F8183A5AE706
:101D300002331C1B99424FEA64043FF6ACAE10B16B
:101D4000013889F89C07BEF1540F7FF476AFB9F8DB
:101D5000A2370133A9F8A2376FE7043395E60633BB
:101D600093E60023F3E600BF56555555FC100020BE
:101D7000264B70B51A785B789A4242D1244E73682C
:101D8000002B22DD06F108000025224CD0F8AC30F3
:101D9000BFF34F8F03F1E002C4F86832203393425F
:101DA000FAD1BFF34F8FBFF36F8F337813B1037F37
:101DB000012B20D042690135716800F586701368E7
:101DC000A94243F001031360E0DCFFF79DFD124BD5
:101DD000D3F81C4B002C0DDD03F5326303EBC40478
:101DE0001968083333F8042CC8689C4242EA0002A0
:101DF000CA60F5D170BD002380F8FC30FEF726F9EB
:101E0000D8E765F07DFE0028B8D170BD081D00241C
:101E10000400002000ED00E0FC100020800AA0F586
:101E20008010522806D8044B1B5C0D2B02D8034AA5
:101E3000D05670470020704720C30A0880560B0810
:101E400060B182884FF0B0414FF00043B2FA82F2A5
:101E5000D1F88000D3400343C1F88030704700BF01
:101E60004FF0B042D2F88030D2F888100B4003F027
:101E70000103C2F8883023B1024BD3F8B4070368DA
:101E800018477047081D00244FF0B042D2F8803048
:101E9000D2F888100B4003F00203C2F8883023B157
:101EA000024BD3F8B807036818477047081D002491
:101EB0004FF0B042D2F88030D2F888100B4003F0D7
:101EC0000403C2F8883023B1024BD3F8BC0703687F
:101ED00018477047081D00244FF0B042D2F88030F8
:101EE000D2F888100B4003F00803C2F8883023B101
:101EF000024BD3F8C007036818477047081D002439
:101F00004FF0B042D2F88030D2F888100B4003F086
:101F10001003C2F8883023B1024BD3F8C40703681A
:101F200018477047081D0024F8B54FF0B043D3F8A8
:101F30008050D3F88820154005F47875C3F8885090
:101F40007DB1084F0126B5FA85F4C4F11F0407EBF3
:101F5000840306FA04F4D3F8B40703689847A5434A
:101F6000F1D1F8BD081D0024F8B54FF0B043D3F807
:101F70008050D3F88820154005F47C45C3F888507C
:101F80007DB1084F0126B5FA85F4C4F11F0407EBB3
:101F9000840306FA04F4D3F8B40703689847A5430A
:101FA000F1D1F8BD081D002430B1036882881B6997
:101FB0001A4214BF01200020704700BF10B103680F
:101FC00082889A61704700BF18B1838802681B0439
:101FD0009361704770B50D4682B00446164640B115
:101FE00001680C4B0C4A0B449B0A02EB4303B3F809
:101FF00048025FF0FBFDC5F38101C5F3411305F015
:102000001302CDE90016A188206864F0B3FB02B08A
:1020100070BD00BF0000FEA720C30A0800B1D9E7C9
:1020200070472DE9F84FC44F6423044603FB007347
:10203000D3F8C065002E00F06981D3F8C885B8F1E7
:10204000000F04D098F90630002B40F05F81642324
:1020500003FB0473D3F8CC5525B195F90630002B5A
:1020600040F05481631CDBB2B8F1000F04D015229C
:1020700088F8073088F8062015B11622EB71AA718E
:102080004FF0640A308D5FF0B1FD29460AFB04FA77
:10209000404665F0B5FC404607EB0A09DFF8BC8214
:1020A00099F8D23599F8D025002B0CBF4FF01E0BB4
:1020B0004FF03E0B5946FFF7B1FF28469F4D59465A
:1020C00099F8D1255544FFF7A9FF4C220021284655
:1020D00069F0AEFDD9F8C035994A5B689342C9F8FA
:1020E000D835DFF87C9240F0138155F017FFD9F80E
:1020F0002030C3F30213434493F85C3203F01F0310
:102100009FED907A9FED905AB0EE084AD840642334
:10211000F7EE003A4FF0000C07EE900A03FB047351
:1021200040F21458F8EE677AB3F8D4A5C7EE275AF0
:1021300007EE90AA9FED857AF8EEE77AC7EE274A78
:10214000DFED837AB0EE007AE5EE877AA5EE875A66
:1021500025EE844A37EE856A74EEE72ABAF5C87F21
:102160000CF1010ED5BF4FF496727822642332230E
:1021700007EE90EAD8BF4FF416791344A2F1320269
:10218000F8EEE76AC8BF4FF4827907EE903AD4BF01
:1021900041464FF4FA7166EEA56AB8EEE77AC7EEEB
:1021A000267A07EE102A01EB0902B8EEC77A37EE5D
:1021B000447A77EEE37AFCEEE77A17EE903AC7EED0
:1021C000267AFCEEE77A17EE900A07EE909AB8EEC0
:1021D000E73A07EE902AF8EEE77A23EE243A83EE08
:1021E000277A37EE453A32EEC77AC3EE267A77EE93
:1021F000E37AFCEEE77A17EE901AC7EE267A77EECE
:10220000E37AFCEEE77A17EE902A02F1020909EB75
:10221000010BB0EE467A07EE90BAF8EE677AA6EEBA
:10222000A77AF4EEC74AF1EE10FA7DDC43EA000922
:102230005FFA89F9B9F10F0F78D841EA02091FFA5C
:1022400089F9B9F1FF0F71D81B05000403F07F6312
:1022500092B200F47F0003433E4843EA0C7300EA65
:1022600001210B4313436422284602FB0474002718
:10227000C4F8DC350123C4F8E075C4F8E435C4F8CB
:10228000E875C4F8EC75C4F8F475C4F8F87564F032
:1022900023FA94F81936202BD9B21AD194F81836AB
:1022A000012B16D0242384F81936D4F8D8351A68AF
:1022B00022F001021A601A6822F480521A601A6829
:1022C0001A601A6842F001021A6084F8191684F83C
:1022D0001876002196F82B005FF098FB96F82B30CB
:1022E00001241D4D5A0903F01F03002104FA03F3D2
:1022F00045F8223096F82A005FF088FB96F82A30DD
:102300005A0903F01F039C4045F82240BDE8F88FAE
:1023100055F004FED9F81C30C3F30213984498F822
:102320005C32EBE6F44619E7013170E7BEF10F0FBE
:10233000F8D1002397E700BF081D0024E022002405
:10234000001C0058286B6E4E000016430024744990
:102350000000704200FFFF0000E100E020C30A0817
:102360000044025808B1002234E6704770B50E4CA4
:1023700094F8F865AEB104F58764002503E00135F3
:102380002034B5420DD0237F002BF8D0E068002226
:102390000028F4D00135217DFFF71CFE2034B54222
:1023A000F1D1012070BD00BF0400002070B590F88D
:1023B000EE311C09013C082C0FD81A4E054603F0DB
:1023C0000F0306EB4402B2F86C0240FA03F2D207A4
:1023D00003D595F8F121012A01D0012070BD9A4062
:1023E0002644013A104069F0D3FD96F880320E4A37
:1023F000034402EBC30452F83320A3881069184049
:10240000ECD0002395F8EF210221204685F8F13128
:10241000FFF7E0FDD5F85021136843F0080313607F
:10242000DBE700BF20C30A08FC24002470B5154B6D
:10243000BFF34F8F144903F58652C1F86832203339
:102440009342FAD1BFF34F8FBFF36F8F0F4C40F21F
:102450002A430C4AB4F84C5404F580602946FEF730
:1024600099FB034618B1002384F84E3470BDD4F8AC
:102470000064294604F5806001227362BDE8704063
:1024800066F05EBB2053012400ED00E0081D00242F
:10249000014B43F8201070475040005819481A4B20
:1024A00001681A4A41F4807130B482B00160D3F8F7
:1024B000F410FF24CA2041F48031C3F8F410D3F89B
:1024C000F41001F4803101915321019D5462506256
:1024D0005162D3F8D030DB010CD40C4B00220C49F4
:1024E0005A659A65DA651A665A669A66196502B07F
:1024F00030BC7047126D064B9A42EED102B030BC30
:10250000704700BF0048025800440258004000587D
:10251000316665422DE9F84FD0F85C710446534BA3
:1025200000F59676FDB227F0FF09826800F1E00A17
:10253000103D4846D2F80080A3FB05352D092946F9
:1025400063F036F9D4F81C210023B2F5807F84F8BB
:1025500020317FD00DD8102A00F084805DD8012A68
:1025600046D0042A16BF6FF400616FF008013C23C7
:102570000EE0B2F5805F71D0B2F5803F3BD0B2F58E
:10258000806F15BF6FF400616FF008013C230423D6
:10259000324608F11806404656F803C001EA0C011D
:1025A000F150D4F81CB1594662F0C2FEBBF5807FF1
:1025B0002ED024D8BBF1100F3FD037D8BBF1010F7C
:1025C00002D0BBF1040F34D14FF0080C33685246EF
:1025D0002946484643EA0C0333604023C4F8E830F8
:1025E00063F08AF83B6843F010033B60BDE8F88F66
:1025F0006FF00801CCE76FF008013C23C8E7BBF59A
:10260000805F22D0BBF5803F1AD0BBF5806F10D120
:1026100008F11C064FF0080CD8E7402A15BF6FF4EC
:1026200000616FF008013C230023B1E7BBF1400FCC
:10263000CAD03C364FF4006CC8E74FF4006CC5E7D5
:1026400008F154064FF0080CC0E708F11C064FF4DF
:10265000006CBBE76FF00801042399E76FF4006199
:10266000042395E76FF4006192E700BFABAAAAAA22
:102670002DE9F04F474D85B02B781BB9012005B0EF
:10268000BDE8F08F444B5C6EFFF73EF995F8F835E6
:102690000193002B00F0C781404B05F5C065404E0B
:1026A0000027A3FB042300955B09A6FB03263D4AF4
:1026B000F60802F2347806EB8606A3EB4606D2F85B
:1026C000483BC11A1346F2B203F6142A08EB8606F9
:1026D00089460392B9F1000F05DB009BD3F8243142
:1026E0004B4500F387814FF4B4732A4A03FB072359
:1026F00093F82037002B00F0BF80009D2A48D5F8C2
:102700005C11AB681A68CBB221F0FF01103BA0FB53
:10271000030326481B09C35C0B44A9895C68D36882
:10272000A4B223EA0103C4F11604D360072C40F2DB
:10273000A3801C4A0121D5F86451D2F81C3A8B467B
:10274000AE4602970133C2F81C3A0022286894462C
:1027500014E0BCF1140F2BDC13F1080748BF03F1A0
:1027600017073B110CEB271C5F1E013102FA03F324
:102770000BFA07F78C4247EA030219D303468C424F
:102780005EF8040FA0EB0303E3D8CCF115034FF080
:10279000150CE9E704000020081D00241F85EB51FB
:1027A000CDCCCCCCFC100020ABAAAAAA90560B082A
:1027B000BCF1150F029F40F013819F48C2F38423A0
:1027C000C2F3441100EB830300EB8101D3F88C3298
:1027D000D1F88C121B0243EA011302F01F01C2F36D
:1027E000C43200EB810100EB8202D1F88C12D2F8E6
:1027F0008C220B4343EA023383EA132282EA121249
:1028000002F00F020F2A40F0EB80C3F30F134FF6D4
:10281000FF72934200F0E480B3F5606F00F0EE8049
:10282000AAF80C3098F858200398824210D0B1686A
:10283000D8F80020521AC8F80020D8F80420316BCC
:10284000521AC8F804200022B260326388F8580097
:10285000D8F800200132C8F80020B2680132B26016
:102860004FF6FF72934207D1D8F804300133C8F80D
:102870000430336B01333363009C013708F15C088B
:102880005C3620460AF1140AFFF744FE04F5B473DF
:102890000093019BBB427FF41DAF684901220023D6
:1028A00081F8182BC1F8483B6549D1F8083691F8F2
:1028B000D8261B6812F0020FD1F81C171A6A0CBF39
:1028C0000A4342EA81021A62019B012B3FF4D6AE11
:1028D0005B49D1F8703791F840281B6812F0020F5D
:1028E000D1F884181A6A0CBF0A4342EA81021A62BC
:1028F000019B022B3FF4C2AE5149D1F8D83891F870
:10290000A8291B6812F0020FD1F8EC191A6A0CBF43
:102910000A4342EA81021A62019B032B3FF4AEAEE6
:102920004749D1F8403A91F8102B1B6812F0020F7A
:10293000D1F8541B1A6A0CBF0A4342EA81021A6298
:10294000019B042B3FF49AAE3D49D1F8A83B91F886
:10295000782C1B6812F0020FD1F8BC1C1A6A0CBF4D
:102960000A4342EA81021A62019B052B3FF486AEBC
:102970003349D1F8103D91F8E02D1B6812F0020F99
:10298000D1F8241E1A6A0CBF0A4342EA81021A6275
:10299000019B062B3FF472AE2949D1F8783E91F89D
:1029A000482F1B6812F0020FD1F88C1F1A6A0CBF57
:1029B0000A4342EA81021A62019B082B7FF45EAE51
:1029C000204A52F8203C92F8B0001B68D2F8F4106C
:1029D00080071A6A4CBF42EA81020A431A624DE636
:1029E000164AD2F8183A0133C2F8183AAFB14FF686
:1029F000FF7317E7002005B0BDE8F08F12494A7851
:102A000002EB420201EBC2023A44527C0D2A7FF4EF
:102A100007AF80228AF81E2004E7294658220B4877
:102A200069F0A8F8E3E719460122044BC3F8481BF4
:102A300083F8182B22E600BF20C30A08FC100020F0
:102A40000400002004100020081D0024BC1B0020EE
:102A5000464A92F8781C013949B24B1C00F0848038
:102A6000434B480103EB411100B5C2F87C1C811DAA
:102A700013F801E003EB010C92F8801C8E455BD04B
:102A80009CF802E08E4555D000F10A0113F801E0F0
:102A900003EB010C92F8811C8E4546D09CF802E0B5
:102AA0008E4540D000F10E0113F801E003EB010C5C
:102AB00092F8821C8E4531D09CF802E08E452BD0D6
:102AC00092F8761C31B300F1120113F801E003EB28
:102AD000010C92F8831C8E4535D09CF802E08E459F
:102AE0002FD000F1160113F801E003EB010C92F86E
:102AF000841C8E4533D09CF802E08E452DD01A30D0
:102B000092F8851C13F800C003448C4521D09878B6
:102B100088421DD05DF804FB0CF1020CBCF80010DB
:102B2000A2F8881CCCE70CF1020CBCF80010A2F84B
:102B3000921CB7E70CF1020CBCF80010A2F8901C34
:102B4000A2E70CF1020CBCF80010A2F88A1CC8E73E
:102B500002331B88A2F88E3CDCE70CF1020CBCF8B7
:102B60000010A2F88C1CCAE7704700BF081D0024A3
:102B70002CC60A080120704738B5134D41F20D13D9
:102B8000124941F28832D5F83405D5F8F0440004F2
:102B9000A060E068014020460B430D21E36058F03F
:102BA00045F938B1D5F82425034600201343C5F86C
:102BB000243538BD606900F4F050A0F50060B0FA2B
:102BC00080F0400938BD00BF081D0024C0E0FEFFB2
:102BD00008B5FFF7D1FFA0B10B4BD3F8600358B194
:102BE000026893F85D338088126910402BB9003871
:102BF00018BF0120013840B208BDB0FA80F040098A
:102C0000F8E74FF0FF3008BD081D0024C74BD3F88C
:102C1000B414D3F8B82470B58C0F93F8F05C100E90
:102C2000C2F3072C83F8984CC1F383640001012D93
:102C300083F8994CC1F3016483F89A4CC1F30744BB
:102C400083F89B4CC1F30724C9B283F89C4CC2F3B0
:102C5000035483F89D1CA3F89E0CC2F3C030B3F854
:102C60009E1C89B241EA0401C2F30344A3F89E1CEE
:102C7000C2F3403183F8A04CC2F3803483F8A10C36
:102C80004FF0000083F8A24C83F8A31CC2F300317C
:102C900083F8A41CD3F8BC1483F8A50C40F2EF8091
:102CA000022D00F0C3802A204FEA4C0C83F8B14C6F
:102CB000C1F3C01201F07F010CF07E0C83F8B2CC9E
:102CC0004FF0010C93F8B24C1443D3F8C02483F8AE
:102CD000B24CD40F83F8B31C910D83F8B44CC2F3FB
:102CE000417401F00C01C2F3815583F8B54CC2F375
:102CF000826483F8B64C83F8B71C93F8B71CD3F8FA
:102D0000C444294383F8B71CC2F3405183F8B81C6C
:102D1000002183F8B91CC2F3004183F8BA1CC2F346
:102D2000C03183F8BB1CC2F3803183F8BC1CC2F3F2
:102D3000403183F8BD1CC2F3003183F8BE1CC2F3DE
:102D4000812183F8BF1CC2F30121C2F3460283F83C
:102D5000C01CC4F3074183F8C12C220E090283F87A
:102D6000C2CC83F8C42CC4F30722A3F8C61C2406E3
:102D7000B3F8C61C89B21143A3F8C61CD3F8C81413
:102D8000C3F8C84C0C0ED3F8C82C42EA0442C3F86E
:102D9000C82C0A0AD3F8C84C02F47F422243C1F37C
:102DA0000724C9B2C3F8C82CD3F8C85CD3F8CC2424
:102DB0002C43C3F8C84C83F8CC1C110E83F8CD1CEF
:102DC000110C0906C3F8D01C1102D3F8D04C0A46E6
:102DD00001F47F01214392B2D3F8D044C3F8D01C50
:102DE000D3F8D01C0A43C3F8D02CC4F30352D3F851
:102DF000D01C41EA1461C3F8D01C93F8D41C1143D1
:102E0000C4F3072283F8D41C210A01F47061A3F8EB
:102E1000D61CB3F8D61C89B21143C4F34602A3F8FA
:102E2000D61C83F8D82C83F8D9CC70BD1204C1F31A
:102E3000072C0D0E02F47C12C3F8A82CC1F3074234
:102E4000D3F8A84C44EA0524C3F8A84CD3F8A84CFE
:102E500022434FF40074C3F8A82CD3F8A82CC3F86D
:102E6000E84C013240F10004A40244EA9254920278
:102E7000C3F8E44CC1F38034C3F8E02C14E74FEA04
:102E80008C2CC1F3C26594000CF44062C1F3072C92
:102E900004F47F74C3F8A82CD3F8A82C1443CA0BED
:102EA000C3F8A84C02F00602D3F8A84C44EA917487
:102EB000C3F8A84CC1F3026483F8AC5C012583F825
:102EC000AD4CC1F3425483F8AE4CC1F3824483F855
:102ED000AF4CC1F3C03483F8B02C93F8B02C22432C
:102EE00083F8B02CD3F8A84C93F8B02C93F8A06CCE
:102EF000023205FA02F2B540D617A2FB052EC3F83E
:102F0000E85C05FB06EE04FB0EEE0134A2FB042494
:102F1000A644520AC1F3803442EACE52C3F8E02CF0
:102F20004FEA5E22C3F8E42CBEE600BF081D002471
:102F30000E4838B5D0F860330D4614463BB11968D9
:102F400090F85D239B8809690B4052B15BB9FFF78C
:102F50005DFE074A4FF400730020126C2A60238044
:102F600038BD002BF3D14FF0FF3038BD081D0024D1
:102F7000A82900245DF024BE5DF022BE2DE9F843AF
:102F80002422D0F8505100238168C0F8D021044693
:102F90002A6800F5A87622F001022A602B606B6097
:102FA000AB604279C0F8D83180F8CC31C0F8D0316C
:102FB000C0F86831C0F8D431C0F870319302C0F85D
:102FC000541103F48053BC49C0F8583113038D42A7
:102FD00003F40053C0F85C314FEA022303F480632A
:102FE000C0F8603100F0AB812379D80703F002010B
:102FF00000F14081002940F07181C4F8641194F817
:10300000F0314BB1D4F8783143F00803C4F878318B
:103010004FF40043C4F8883112F00802D4F8D031DC
:1030200000F06E81002B00F0AD8124233046C4F8FF
:10303000D0312B6823F001032B6057F0A7FC012847
:1030400017D0D4F87831002B40F09F816B68304660
:1030500023F490436B60AB6823F02203AB60AB6852
:1030600043F00803AB602B6843F001032B6062F070
:1030700061FC94F8048018F0010F6FD0D4F82C7123
:10308000002F00F06C8100234FF4807C04F13C0998
:10309000E7632366E3664846C4E91133C4E91433A1
:1030A000C4E91933D4F83431C4F8B8304FF480632C
:1030B000E3644FF48033C4E916C363F0A7FC4846C9
:1030C00053F086FCD4F8D431C4F8C891202B66673D
:1030D00041D1E368626998B2EAB3B0FA80F1490974
:1030E000C8B394F8CCC1BCF1010F34D04FF0220C1E
:1030F000C4F8D811A4F8AC010120C4F8D4C1DFF899
:10310000D0C1C4F8A821C4F878C0DFF8C8C1C4F899
:103110008C10C4F87CC0DFF8C0C184F8CC01C4F8BE
:1031200088C094F870C084450CD084F8700094F87E
:103130007100012800F031814FF4006384F87010B1
:10314000C4F890301023C4F8D831002384F8CC316F
:103150002023C4F8D0317B68C4F8443118F0020F42
:1031600000F08680D4F83051002D00F0EC80D4F8C7
:103170003821002304F1B407C4F8C0303846C4F83D
:10318000C830C4E92D524022C4F8BC204FF48062FC
:10319000C4F8C4204FF48032C4E93333C4E9363371
:1031A000C4E93833C4F8D42063F030FC384653F017
:1031B0000FFC002840F0A380404B4149414A8D421A
:1031C00018BF9D42404801F16001C4F8C4710CBFB2
:1031D00001230023C4F8EC60954208BF43F00103CB
:1031E0003032854208BF43F001036030954208BF8A
:1031F00043F0010330328D4208BF43F0010301F573
:103200006871954208BF43F0010302F55C72854284
:1032100008BF43F0010300F56870954208BF43F012
:10322000010330328D4208BF43F001036031954203
:1032300008BF43F001033032854208BF43F0010369
:10324000954208BF43F0010330328D4208BF43F07E
:103250000103954208BF43F001033BB91B4BEB1A36
:10326000B3FA83F35B09002B00F0AF8000236B609F
:10327000BDE8F8830423C4F8643171B10C23C4F8A9
:103280006431D3077FF5BBAED4F878314FF4803189
:1032900043F00203C4F8801128E0D3077FF5AFAEF6
:1032A000D4F8783143F00203C4F878314FF4803316
:1032B000C4F88031A3E600BF000C005810000240A3
:1032C000280002404000024058000240B80402407A
:1032D000B9830908ED830908F18309080823D10798
:1032E000C4F864317FF58BAED4F8783143F0010334
:1032F000C4F878314FF40033C4F87C317FE6FEE740
:103300000BB194F8CC21242384F8CC213046C4F8A6
:10331000D0312B6823F001032B6057F037FB0128D5
:103320003FF4A7AED4F87831002B32D16B68304629
:1033300023F490436B60AB6823F02A0392E60423E6
:10334000C0F8743150E6D4F8DC311A6842F08002DB
:103350001A601A6842F040021A60BDE8F883D4F897
:10336000DC311A6842F480721A609A6842F00102F5
:103370009A601A6842F020021A601A6842F010023D
:103380001A60EBE684F8CC314FE6304657F0F6FC95
:103390005CE6304657F0F2FCC8E79BB2484605F1C0
:1033A000240153F0B5FC00287FF4CCAE84F8CC01A6
:1033B0002B6843F480732B60AB6843F00103AB6070
:1033C000AB6843F04003AB60C5E66B6050E700BFFD
:1033D00038B50409013C082C1AD80F4D00F00F0332
:1033E00005EB4402B2F86C0240FA03F212F001025B
:1033F00010D00122254402FA03F3013B184068F083
:10340000C7FD95F88032054A034402EBC30038BD7E
:10341000002038BD104638BD20C30A08FC24002413
:103420002DE9F047984D05EB0013D3F8F44C002C30
:1034300000F08F80B3F8FE7C06464FEA001938464C
:103440005EF0D4FB01227B0907F01F07023BBA4064
:10345000082B0FD8DFE813F0BF00C700CF00D7005C
:10346000DF000900E700EF00B7008849CB6F23EACF
:103470000203CB6705EB0903013693F8F80CF6B2AB
:10348000FFF7A6FF074610B11223C671837105EB43
:10349000090393F8F90CFFF79BFF824610B1132341
:1034A000C671837105EB090393F8FA0CFFF790FFDF
:1034B000804610B11423C67183714D4450462E21AD
:1034C00095F8FC2CFEF7AAFD95F8FD2C40460E2140
:1034D000FEF7A4FD95F8FB2C2E213846FEF79EFD45
:1034E00023686B4A23F001039442236033D0694B75
:1034F0009C423ED1654BD3F8902042F48042C3F801
:103500009020D3F8902022F48042C3F89020E36802
:1035100043F00043E360A36823F4F073A3602368DF
:10352000DA0716D4A1685C4A5C4B0A401343A360D7
:10353000E368DB0042D5E268594B134043F0E8638F
:10354000E360236823F400632360236D23F0010309
:103550002365BDE8F0874D4BD3F8982042F48052A4
:10356000C3F89820D3F8982022F48052C3F898200A
:10357000CDE74C4B9C4213D04B4B9C4263D04B4B02
:103580009C426ED1414BD3F8982042F48012C3F88C
:103590009820D3F8982022F48012C3F89820B6E738
:1035A0003A4BD3F8902042F40042C3F89020D3F86D
:1035B000902022F40042C3F89020A8E7236843F447
:1035C00080532360B7E73149D1F89C3023EA0203E6
:1035D000C1F89C304EE72D49D1F8983023EA020318
:1035E000C1F8983046E72949D1F8903023EA020320
:1035F000C1F890303EE72549D1F8943023EA020320
:10360000C1F8943036E72149D1F8803023EA02032B
:10361000C1F880302EE71D49D1F8843023EA020337
:10362000C1F8843026E71949D1F88C3023EA020327
:10363000C1F88C301EE71549D1F8883023EA02031F
:10364000C1F8883016E7114BD3F8982042F40052A5
:10365000C3F89820D3F8982022F40052C3F8982099
:1036600055E7134B9C427FF452AF03F50C33D3F86C
:103670009C2042F02002C3F89C20D3F89C2022F02A
:103680002002C3F89C2042E7081D00240044025891
:103690000030014000380040E0FFBF8F07000020ED
:1036A000FFFF39D8003C0040003401400050014089
:1036B0000014005808B51D20FFF78AFE10B190F9DC
:1036C000063053B11E20FFF783FE10B190F906308B
:1036D00003B108BD5523C38008BD5523C380F1E75E
:1036E0002DE9F047344C94F8900CFFF771FE064634
:1036F00094F8920CFFF76CFE054694F8880CFFF7DF
:1037000067FE94F8768C074694F88CAC94F88A0C93
:1037100094F88E4C0EB11823F3800DB11923EB8071
:103720000FB11A23FB80B8F1000F15D138460121E3
:10373000FEF744FCFEF716FE30460121FEF73EFC84
:103740002846FEF73BFC3046FEF70CFE28460121DA
:10375000BDE8F047FEF706BEFFF73AFE814608B126
:103760001B23C3805046FFF733FE804608B11C235D
:10377000C3802046FFF72CFE044638460CB11D23BB
:10378000E3800121FEF71AFCFEF7ECFD4846FEF748
:1037900015FC4046FEF712FC2046FEF70FFC012107
:1037A0004846FEF7DFFD40460121FEF7DBFD012123
:1037B0002046FEF7D7FDBFE7081D0024F8B50E4CE4
:1037C00094F8F875A7B104F5C064C7F10907092595
:1037D000013D0FD0A6683079FFF7FAFD94F8DC10B0
:1037E000F27908B1FEF7F6FBAF4204F5B474EFD1FD
:1037F0000120F8BDAB68FFDE0400002010B5807822
:10380000FFF7E6FD90B10A494FF0410C0446002253
:10381000D1F8543D80F806C00133C1F8543D202151
:10382000C371FEF7D7FB2368A2889A6110BD00BF61
:10383000081D0024F8B50446EFF31185502383F3E7
:103840001288D0F830311B6803F001031BB1EDB2D0
:1038500085F31188F8BDD0F8D021D0F8D4110A43EF
:1038600002F02102212AF2D0D0E90912914250D06F
:1038700090B24BD8194623691B1A9BB2A162002152
:1038800084F8E011D4F8D0112029E0D1A169891879
:10389000DDD0B3FA83F25209002BD8D094F8CC01D2
:1038A0000128D4D02120A4F8A6314FF0010CC4F88F
:1038B000D821C4F8D001D4F8C401D4F85061C4F8B8
:1038C000A011A4F8A43184F8CCC160B31B4F90F8C8
:1038D00034E0C7631A4FE64502650764194FC764B1
:1038E0000AD090F8357080F834C0674515D04FF491
:1038F000006380F834204365102100222023C4F89F
:10390000D81184F8CC21C4F8D031A0E7081A83B2CA
:10391000B4E7012380F8E03199E706F1280253F07B
:10392000F7F90028E8D100234022326284F8CC3134
:10393000B36843F08003B36089E700BF918309084F
:10394000B5830908F1830908BFF34F8F0549064B7A
:10395000CA6802F4E0621343CB60BFF34F8F00BF2D
:10396000FDE700BF00ED00E00400FA051C481D4A19
:10397000C1681D4B10B44FF6FF0485B021401B4CAD
:103980000A43C260D3F8D010D3F8DC20C4F8581D25
:1039900042F00052C3F8DC20D3F8DC2002F00052E1
:1039A0000192019AD3F8DC2042F08042C3F8DC2077
:1039B000D3F8DC2002F080420292029AD3F8DC2095
:1039C00042F00042C3F8DC20D3F8DC3003F00043BF
:1039D0000393039B05B05DF8044BFDF71DBA00BFD0
:1039E00000ED00E00005FA0500440258081D00241F
:1039F00008B51D480023C0F88430BFF34F8F4369DA
:103A000023F480334361BFF34F8FD0F8803043F607
:103A1000E074C3F34E3CC3F3C90E4FEA4C1C0CEAEE
:103A20000401734641EA8372013BC0F874225A1CB8
:103A3000F8D1ACF1200C1CF1200FF0D1BFF34F8F67
:103A4000BFF36F8FBFF34F8FBFF36F8F43690022B8
:103A500023F400334361C0F85022BFF34F8FBFF30C
:103A60006F8F72B6FFF770FF00ED00E003689B0AEE
:103A7000A3F58013522B54D870B5364C14F803C0FC
:103A8000BCF10D0F4CD843794FF04C0E3248022454
:103A90009E080EFB0C0E0CEB8C03B440DEF85C5D54
:103AA0000CEB4303B6463344EE6800293FD0344361
:103AB00000EB83067167C6F88420EC60EFF3118594
:103AC000502383F312882C2202FB0C010B6F4BB3A3
:103AD0001A1DC1F89430214B0CEB8C01204C0CEBDF
:103AE000410189000C4410310B4453F8041F09B103
:103AF00011600A1DA342F8D10023EDB2136085F3D3
:103B000011882C2303FB0C03D3F89430C3B14C234E
:103B100003FB0C03D3F85C2DD36843F00103D3609F
:103B200070BD70470D4B02FB0C322432D4E726EAFD
:103B30000404EC6000EB83046167C4F88420BDE7F3
:103B40004C2303FB0C00D0F85C2DD36823F0010359
:103B5000D36070BD20C30A08081D0024781D00240E
:103B6000981D002403689B0AA3F58013522B00D9EB
:103B700070470E4AD35C0D2BFAD84FF04C0C10B4A2
:103B80000B4C42790CFB03400223D0F85C0DDA4069
:103B90009340C26829B922EA03035DF8044BC3606D
:103BA000704713435DF8044BC360704720C30A0895
:103BB000081D002403689B0AA3F58013522B10D81C
:103BC000084AD25C0D2A0CD84079022306494FF0EE
:103BD0004C0CD8400CFB02128340D2F85C2DDB4326
:103BE0001361704720C30A08081D002401490248D8
:103BF000FCF76ABF781D002400000140014902481B
:103C0000FCF762BF781D00240000014002494FF01C
:103C10008040FCF759BF00BFA41D002401490248A1
:103C2000FCF752BFD01D00240004004001490248A7
:103C3000FCF74ABFFC1D002400080040014902486F
:103C4000FCF742BF281E0024000C0040F8B5164DBA
:103C5000164E2A69EB681A404FF00040B2FA82F320
:103C6000EAB120FA03F3012A6FEA030302EA03012F
:103C70002B610A46F2D1D6F874718FB1013F00234F
:103C8000BFB2C6F87431D6F8704134B1236820460B
:103C9000394698476468002CF8D10022DCE7F8BD6B
:103CA000EF6ABFB2EFE700BF00100040081D00241C
:103CB00001490248FCF708BFAC1E00240004014083
:103CC00010B5064C064804F5D271FCF7FDFE04F56C
:103CD000FE710448BDE81040FCF7F6BE081D002444
:103CE00000040140001C004001490248FCF7ECBE02
:103CF000D81E00240018004001490248FCF7E4BE29
:103D0000301F00240020004001490248FCF7DCBEBF
:103D10005C1F00240040014001490248FCF7D4BE6A
:103D2000881F00240044014001490248FCF7CCBE32
:103D3000B41F0024004801402DE9F0414FF42572E2
:103D40008EB00021734867F073FF734B734D4FF0D3
:103D50000008D3F8F02040F27D27A5F55B7605F644
:103D6000F41442F00102C3F8F020D3F8F02002F07E
:103D700001020092009AD3F8E82042F00102C3F851
:103D8000E820D3F8E82002F001020192019AD3F86A
:103D9000E82042F00202C3F8E820D3F8E82002F05D
:103DA00002020292029AD3F8E82042F00402C3F819
:103DB000E820D3F8E82002F004020392039AD3F833
:103DC000E82042F00802C3F8E820D3F8E82002F027
:103DD00008020492049AD3F8E82042F01002C3F8D3
:103DE000E820D3F8E82002F010020592059AD3F8F3
:103DF000E82042F02002C3F8E820D3F8E82002F0DF
:103E000020020692069AD3F8F02042F00202C3F88C
:103E1000F020D3F8F02002F002020792079AD3F8BC
:103E2000E82042F04002C3F8E820D3F8E82002F08E
:103E300040020892089AD3F8E82042F08002C3F8C2
:103E4000E820D3F8E82002F080020992099AD3F81A
:103E5000E82042F48072C3F8E820D3F8E82002F4A6
:103E600080720A920A9AD3F8F02042F48032C3F8A2
:103E7000F020D3F8F02002F480320B920B9AD3F8A2
:103E8000F02042F40032C3F8F020D3F8F02002F41E
:103E900000320C920C9AD3F8F02042F48022C3F83E
:103EA000F020D3F8F03003F480230D930D9B55F8E8
:103EB0002810002354F83320914226D001330E2BD2
:103EC000F8D1002008F107085DF090FEB845EED16A
:103ED0004FF0000840F27D2755F82810002354F8D1
:103EE000332091420CD001330E2BF8D1002008F181
:103EF00007085DF07BFEB845EED10EB0BDE8F0815D
:103F000006EBC303B3F8640DF1E706EBC303B3F8A4
:103F1000640DD7E7781D0024004402588CC60A08B7
:103F2000800AA0F5801052280DD8074B1A5C0D2A84
:103F300009D8064B4C2101FB0233D3F85C2D1368E2
:103F400043F001031360704720C30A08081D0024D2
:103F50001F4B984210B50ED003F5806398420AD0EB
:103F60001C4A03F58043984218BF904203D003F5E2
:103F7000806398421BD153F0D1FF174B1749DC697E
:103F8000DA69C4F3022CC2F3022201EB0C0393F8AA
:103F90005C3203F01F03D8400F4B11491B69C3F378
:103FA000C03342EAC303CB5C03FB00F010BD53F007
:103FB000B5FF094B0949DC69DA69C4F30214C2F39D
:103FC00002120B1993F85C3203F01F03D840E3E7A9
:103FD00000000140004001400044025820C30A088C
:103FE0006C560B082DE9F04F002391B0AD4C0093B7
:103FF000AD4BAE4FA3F55D66AB4D4FF00009AC4B3A
:10400000D5F800A093F8EA204FEA9A23A3F580138D
:10401000522B00F2CE80F35C0D2B00F2CA80012AF5
:1040200017F903B000F01081022A02D1BBF1080F8A
:104030003BD14FF00008414658460FF0BFFB0FF050
:1040400045FC90F900C0BCF1000F18BFBCF1540F43
:1040500014BF4FF0010C4FF0000C40F0E98008F164
:1040600004081FFA88F8B8F1100FE4D1009B002B68
:1040700000F0AA808B4A0AE0F35C0D2B0ED8FB56A9
:104080005B450ED002F58672944200F099809168EB
:104090000B689B0AA3F58013522BEDD900235B45D7
:1040A000F0D14B7969799942ECD109F101091C35BC
:1040B000B9F1080FA3D1009B04F586740133042BDA
:1040C000009399D17B4A4FF0010B92F8F83502F535
:1040D000876901330393039B5B4567D0744B99F861
:1040E0001020D9F80C6093F8FE300092002E5DD0BD
:1040F000704AD6F800A055686F48B288002D504429
:1041000001924FEA902040F3AE80664A002405E019
:10411000013402F58672AC4200F0A280116881423F
:10412000F6D1604B4FF48672019D02FB0434009B74
:104130000322C9F80C6089F81030019BC9F81840B7
:10414000B3FA83F7C7F11F035800C9F80430B271FE
:1041500086F807B002FA00F6A16C0122D4F854C028
:10416000314302FA00F002FA03F3A164216D014326
:10417000D4F8AC0021654F490E7899B2002E00F0BA
:104180004E8143EA0C036365CAF81850FBF78AFFB7
:104190000BF1010B2046FBF759FF09F1200940F212
:1041A0000113BBF1090F29F8043C94D111B0BDE80B
:1041B000F08F013A012A7FF678AF4FF0000B38E715
:1041C000BCF1000F7FF471AFA86800223B4904E006
:1041D00001320C31102A00F088834B689842F7D1E5
:1041E00052B269795046FDF7EFFA354A406800232C
:1041F00051680133884208D0102B02F124023FF4A9
:1042000054AF516801338842F6D1DBB22D4A013BED
:1042100003EBC30302EB830393F9E030002B7FF43D
:1042200044AFC9EBC909204B03EB8903A36042E704
:10423000009B002B7FF41EAF09F101091C35B9F179
:10424000080F7FF4DCAE36E7BBF1010F3FF4F1AEAF
:1042500009F101091C35B9F1080F7FF4D0AE2AE746
:10426000042C00F049824FF48671124A01FB0522AA
:1042700011690491002900F00483906001304FF02F
:1042800054019C46C4B20D4882F8101182F81141C5
:104290006A1C08494A60049A11689768029151792A
:1042A000002216E00C000020F0D00A0880560B080F
:1042B000002E0024040000200000FEA704000024BB
:1042C000C40000240000002401320C30102A00F049
:1042D0000C8343689F42F7D152B20298CDF814C0C4
:1042E000FDF772FA944B4FF48672DFF87C8202FB82
:1042F00005310022059B0132D0E90170C1E9077048
:1043000041464868874208D0102A01F124013FF451
:104310004DAF486801328742F6D1D2B28749013A9F
:1043200002EBC20201EB820292F9E01000297FF455
:104330003DAF4FF4867182F8E1400693542401FBAF
:1043400005F37F4882F8E0409A107E49059300FB10
:1043500002F201F560747848C2EBC20C02EBC202B3
:10436000184401EB4C1104EB4212C0F80CA0C0F849
:10437000B410C0F8FC203322C0F8B8208C22C0F85A
:104380000021714A0298D418FFF7E2FD069B062B24
:1043900000F0B981072B6D496D4B6E4A18BF1A4664
:1043A0006D4B18BF0B464FF48671DDF808A0B0FBCB
:1043B000F3F3B0FBF2F2013B5F48013A01FB050168
:1043C0009BB2A1F8BC20A1F874302366059B03F1D1
:1043D000580100F10803504619440023A4F858304E
:1043E0006366E36561F022F9DAF8003043F0800398
:1043F000CAF80030049B5B791A4606930C2A1CD835
:10440000DFE812F003021B001B001B00DD011B0094
:104410001B001B00BB011B001B001B009601C7F10A
:104420002F072D0402FA07F3324643EA0C036365B3
:10443000CAF81850FBF736FEAAE63F4A4FF48673D7
:1044400002984FF0000A03FB05230222CDF828A0B2
:1044500059690368079123F00103CDF834A0CDF822
:104460003CA00360602308934FF480730E930123F4
:1044700009930A23CDE90B3208AA60F059FF079986
:10448000B1F5807F00F0288240F24081B1F5805F75
:1044900000F00E82B1F5803F00F00482B1F5806F2C
:1044A00015BF4FF4006308234FF03C0A4FF0040A95
:1044B000029A183252F80A100B4342F80A30049B51
:1044C0001879002840F0CB81029A136843F0010369
:1044D00013600023D8F804200133974200F0BC8118
:1044E000102B08F12408F5D14FF0FF330027134AB1
:1044F00003EBC30302EB8303D3F8C400174B9842CA
:1045000014BFA120A0205DF071FB069A0C2A00F2D6
:10451000A081134B03EB4203B3F8B0CE4FF4867384
:10452000054A104803FB0523DDF808E000F5326179
:10453000A3F818C0002320E004000020000000249D
:104540006B4CA407204B01240C000020D0DD06009A
:10455000449508001055220040771B0000000240DF
:1045600020C30A08FC100020C4000024964500F077
:104570009D810133042B00F0BB8151F83320002AC8
:10458000F4D1D0F81C2B0132C0F81C2B00EBC30077
:10459000029ADB00C0F8202B1944384623469022AB
:1045A0008F884CEA070C0027A1F804C0C349FDF727
:1045B0007BF94FF48673C24A40214FF4403CC14816
:1045C00003FB052A4FF48052DAF81C502B6843F0A5
:1045D00010032B602B6843F014032B60C4E91F7792
:1045E000C4E92777C4E92977DAF82030A167E9B26E
:1045F000C4F89430069310394FF48063C4F898C01F
:10460000A0FB01014FF4804CC4F88430DAF8B80004
:104610000909059BC4F8900025F0FF00DAF80C802A
:10462000C4F8882008F118020491029008F11008DB
:10463000226703F17002A44B1A44DAF8B430C4F8CC
:104640008CC0636761F058F8D5F800C0059BC4F8CA
:1046500020C0D5F814C003F1B8029B4BC4F824C0A5
:10466000D5F804C01A44069BC4F828C0D5F808C081
:104670000499C4F82CC0D5F80CC0C4F8DC304FF451
:104680008063C4F8C870C4F8CC304FF40033C4F869
:1046900030C0C4F8E0300298C4E93077C4E9397713
:1046A000C4E93B774FF40067DAF80031C4F8B8800A
:1046B000C4F8D0704FF48047C4F8D830DAF8FC3032
:1046C000C4F8D470C4F8BC3061F016F82B68D6F882
:1046D00000A063636B69A3636B68E363AB682364E7
:1046E000EB6863642B6843F010032B602B6843F086
:1046F00014032B60B5881AE50323744A82F8FF304F
:1047000011B0BDE8F08F724A724B4CE6102900F0F0
:10471000E98000F2BD80012900F0E280042915BF84
:104720004FF4006308234FF03C0A4FF0000ABFE645
:1047300002984FF4867262494FF0020A036802FB46
:1047400005124FF4805123F00103516108AA036060
:1047500000230A930D930F93602308934FF4807303
:104760000E93012309930A23CDE90B3A60F0E0FD93
:104770004FF0040A4FF400639AE602984FF48672F1
:104780004F494FF0020C03684FF0040A02FB051278
:104790004FF4807123F00103516160220360002314
:1047A0000E910A930D930F930123CDE908230A2359
:1047B00008AACDE90B3C60F0BBFD082378E602981F
:1047C0004FF486723E494FF0000A03684FF0020E24
:1047D00002FB0512102123F00103CDF828A051613E
:1047E00008AA03606023CDF834A008934FF48073C7
:1047F000CDF83CA00E93012309930A23CDE90B3E8B
:1048000060F096FD4FF4006352E602984FF4867212
:104810002B494FF0000A03684FF0020E02FB05120D
:10482000012123F00103CDF828A0516108AA0360FB
:104830006023099108934FF48073CDF834A00E9350
:104840000A23CDF83CA0CDE90B3E60F071FD0823B2
:104850002EE64FF0000C61E6DFB27B1E47E6FEF766
:10486000B7FD824638B1049B0221DA79FDF7B2FB2D
:104870005423AAF80630029A536C43F4004353645D
:1048800022E60223114A82F8FF3011B0BDE8F08F12
:10489000402915BF4FF4006308234FF03C0A4FF046
:1048A000000A05E608234FF03C0A01E6DB0073E648
:1048B0004FF400634FF0040AFAE500BF0100000066
:1048C00004000020ABAAAAAA0C000020002E00249D
:1048D000882A1100A0BB0D0008234FF0040AE7E569
:1048E0000823E5E54FF40063E2E500235B68FFDEA3
:1048F00000239B88FFDE00BF2DE9F04FB04D8FB045
:1049000095F80081B8F1000F03D100200FB0BDE889
:10491000F08F00222F2140460FF02EF80646002887
:10492000F3D090F80590A74FD0F800A0A7F84C94CA
:10493000FCF772FF0028E8D0D0E901430193002C76
:10494000E3D0DFF8B8B20022594601E0102ADCD0EB
:104950004B68013224319C42F8D1D2B29A4B013AD1
:1049600002EBC20203EB820292F9E030002BCCD1C1
:104970002F2150460293A2F8E010C7F800A4FFF7D9
:10498000E7FA924A029B904280F0FA801A4601238D
:10499000039350460292FFF7DBFA029A039BC7F893
:1049A00004248B49B0FBF3F2120A8A48A1FB0221CE
:1049B0000022C7F81024C7F808240A090909A0FB37
:1049C0000202C7F80C145208A5F804215200A5F8F9
:1049D000022197F83D2402F0FF01002A00F0DE805A
:1049E000022250467C4987F83D2455F07DFE012285
:1049F000404687F8482487F83E2487F83F2487F804
:104A0000402487F8412487F8422487F8432487F814
:104A1000442487F8452487F8462487F8472487F8F4
:104A20003D24FEF7D5FCC5F8080128B12F21C1802F
:104A30004E21F279FDF7CEFA684A0021019B4FF42E
:104A4000806CC5F81811B9F10C0FC5F82811C5F81C
:104A50003011C5E94343C5E94E11D2F8D80040F002
:104A60000100C2F8D800D2F8D80000F0010004908C
:104A70000498D2F8D80040F00200C2F8D800D2F86A
:104A8000D82002F002020592059A4FF04002C5F8C4
:104A900014214FF48052C5E947C24FF48042C5F853
:104AA00024214FF40032C5F82C214FF00302C5F841
:104AB000342176D84A4A02EB4902B2F8CC8EC2467B
:104AC000484A08F108084849C5F8442107EB88021C
:104AD000C2F80014594600224B68013224319C422E
:104AE00062D0102AF8D14FF0FF32374B02EBC202EE
:104AF00003EB8202D2F8C4003C4A904214BFA120CA
:104B0000A0205DF073F80022DBF8043001320BF1D5
:104B1000240B9C424BD0102AF6D1002007EB8807CB
:104B2000534660223249FCF7BFFED7F8000451F02B
:104B30004FFF00287FF4E9AEB479002760260C907F
:104B400063004A4606A9274803F002030893E300DE
:104B5000CDE9066703F00803002600270993CDE995
:104B60000A675CF0ADFB00287FF4CFAEA30749468F
:104B70001C481ED555F0C0FEB0FA80F04009C5E6CD
:104B80005046FFF7E5F91B4A1B490244A1FB0212FC
:104B9000920D531E9AB2531C0393FAE687F83C1405
:104BA0001EE78A4688468BE7D2B2013A9DE7D0B22B
:104BB000B4E755F00DFDB0FA80F04009A6E600BF5D
:104BC000002E0024081D002400000024006CDC02DC
:104BD000598B4F01ABAAAAAA0C2100240044025809
:104BE00020C30A08082100240C2F002400000240E2
:104BF000D502000000366E01819F5E16C4000024BD
:104C0000830AA3F58013522B00D970472DE9F04198
:104C100015460F4AD65C0D2E17D80E4C4FF04C0897
:104C2000013908FB064789B2C7F8681DFFF790F9FC
:104C300007F55661B0FBF5F2013AD7F85C0DC7F8FD
:104C4000602DBDE8F04155F04FBDBDE8F08100BFDB
:104C500020C30A08081D0024830AA3F58013522BE1
:104C60006ED82DE9F0439046714A85B0D65C0D2E82
:104C700063D84C256F4F044606FB05F507EB050985
:104C8000D9F85C3D834258D00139C9F85C0D08352C
:104C900089B2C9F8681DFFF75BF907F65C5100237C
:104CA000B0FBF8F00D440138C9F8643DC9F8600D57
:104CB000C5E9023399F8993D03F0FF02002B40D07B
:104CC0004C25022305FB061105FB06750431D5F8BA
:104CD0005C8D85F8993D404655F006FD012385F829
:104CE000A43D85F89A3D85F89B3D85F89C3D85F867
:104CF0009D3D85F89E3D85F89F3D85F8A03D85F852
:104D0000A13D85F8A23D85F8A33D85F8993D4A4B24
:104D10009C4219D0B4F1804F16D0A3F57C439C423D
:104D200012D003F580639C420ED003F580639C4251
:104D300060D003F578439C425CD005B0BDE8F083B9
:104D4000704789F8982DBBE74C2303FB067393F853
:104D5000982D012AF1D0022283F8992D374AD8F8EC
:104D600008100A40C8F80820012283F8992D002273
:104D700083F8982D00224C232F4903FB06730392DE
:104D80008845CDE901224FF0020283F8992DD8F829
:104D90000420D8F8083028D001F58061884524D057
:104DA00022F07002C8F80420254A90450DD0B8F1D1
:104DB000804F0AD0234902F50062904518BF88450C
:104DC00003D002F54062904503D123F08003C8F878
:104DD00008304C230121002203FB067383F8991D40
:104DE00083F8982D05B0BDE8F08317491140C8F845
:104DF0000410EAE74C2303FB067393F8982D012A6D
:104E00009BD0022283F8992D0C4AD8F808100A404A
:104E1000C8F80820012283F8992D002283F8982DE4
:104E20000A4B9C42A6D003F578439C42A2D084E76B
:104E300020C30A08081D0024000001408800CEFF9E
:104E400000040040000800408FFF0FFF000C0040EE
:104E50002DE9F0410468A30AA3F58013522B03D86F
:104E60002C4DEE5C0D2E01D9BDE8F0812046FFF7F8
:104E7000F3FE4C22284B02FB063393F8992D012AAE
:104E800010D00023254951F8332094421CD001331F
:104E90000E2BF8D1012100205CF0B8FD204B01223F
:104EA0001A60E1E70221D3F85C2D83F8991D1D4BB0
:104EB00091680B40062BE4D0B3F5803FE1D0136836
:104EC00043F001031360DCE705EBC3050126144F33
:104ED00095F8664D314604F01F0520465CF096FDBE
:104EE0001B2C4FEA541806FA05F547F8285009D04C
:104EF0002E2CB9D131462C205CF088FD4FF4805324
:104F00007B60B1E7314619205CF080FD4FF0007303
:104F10003B60A9E720C30A08081D002480D00A08C6
:104F200000E100E007000100F8B5134C94F89E344E
:104F300003F0FF05002BF9D1104B012693F88431C3
:104F400084F89E6403B9F8BD0D4AB4F89C74138EBE
:104F500034320C483946FBF71DFE034610B184F885
:104F60009E54F8BDD4F85044324639460548636231
:104F7000BDE8F84063F0E4BD081D0024002E0024C5
:104F8000E0FD00245821002437B590F86738044626
:104F9000032B2FD10023204D8DF807309DF80730CB
:104FA00094F868289A4201D803B030BD9DF80730C4
:104FB00005EBC30393F88C318BB181F0010383B10E
:104FC0009DF8073005EBC303D3F88801FCF7F6FF23
:104FD0009DF807300133DBB28DF80730DEE70B4672
:104FE000EDE79DF8073005EBC303D3F88801FCF724
:104FF000EBFFEDE7D0E910039B7903F00103994241
:1050000004D003B0BDE83040FCF7D8BF03B0BDE822
:105010003040FCF7D9BF00BF002E002438B504464D
:1050200000790D4650B1FEF7D3F908B10323C380D0
:10503000E2792946BDE83840FCF7F0BF38BD10B52D
:1050400004462221FFF7EAFF2046FEF7B3FD204683
:105050000121BDE81040FEF785BD10B504460121D1
:10506000FFF7DCFF00212046BDE81040FEF77ABDC7
:1050700038B510F8133CA0F66C041BBB94F85838F4
:105080008BBBD4E909239A421CD05A1CA169A262A5
:10509000CB5C21695B008A4228BF002243F4007385
:1050A000A262A4F85C380A2384F85A38012384F8F1
:1050B000583894F86738012B01D0042B02D1606C6A
:1050C000FFF7CBFF94F85438002B6DD194F8553886
:1050D0000133DBB2092B84F8553825D12046BDE8D1
:1050E0003840FBF7B7B894F95A586DB1B4F85C186A
:1050F000013D20464B0801F00101A4F85C38FFF7A0
:1051000043FF84F85A58DDE7D4E9092384F8585856
:105110009A42D7D194F86738012B01D0042BD1D112
:10512000606CFFF78CFFCDE70A2B3DD194F8573820
:105130002BB9B4F85E3843F00103A4F85E38237944
:10514000D9070AD5B4F85E08820501D4C30718D47C
:10515000B4F864380133A4F864380122002384F8D9
:10516000542894F8572884F85538012A1CD16179BD
:10517000606C84F8573801F00101BDE838405BF0FD
:10518000EBB9E36AC0F3470013B1216B9847E4E73A
:10519000E3696269D054E369E2680133B3FBF2F179
:1051A00002FB1133E361D8E738BD2DE9F84310F86D
:1051B000133CA0F66C047BB1B4F8603801339BB2A9
:1051C000082BA4F860381BD90021606C84F85918AA
:1051D000A4F860185BF0C0F9374F97F8C881B8F1B0
:1051E000000F03D101212046FFF7CEFE94F8583876
:1051F0004BBBD4E909239A4204D1002387F8C83174
:10520000BDE8F883B8F1020F12D808F1010814BF05
:10521000FF237F2387F8C881A4F85C380823606CDB
:1052200084F85A38012384F85838BDE8F84314E765
:105230005A1CA169A262CB5C2169DBB28A42EBD322
:105240000022A262E8E794F95A685EB3B4F85C9869
:1052500097F8C95119F001010BD0012D01D8012196
:1052600003E0AB1E012B09D800212046FFF78CFE7E
:1052700004E015F0FD03F2D0012BF6D00135EDB2BC
:10528000032D87F8C951BBD9013E4FEA59090023C4
:1052900076B2A4F85C9887F8C93184F85A68002E71
:1052A000A7D0ADE7D4E909239A42A9D1606C84F86C
:1052B0005868BDE8F843C2E6002E00242DE9F0430B
:1052C000BFB0BFF35F8FA24A0020516A0346044675
:1052D00021F4803151620146C2F89400C2F898303E
:1052E0000133C2F89C10112BC2F8A010F6D105238F
:1052F000C2F89430536A43F480335362BFF34F8F44
:10530000BFF36F8F9348944A9449121A66F032FCA7
:105310009348944A9449121A66F02CFC934BDA6D28
:10532000042A00F0FB8005D8012A00F09383022AAA
:1053300000F0A683864A00238D4C0120D2F8881005
:105340008C4E41F470018C4DC2F8881020602361AE
:10535000216841F0800121602168014321602168BA
:1053600041F480312160216841F480512160A361C2
:10537000E3612362A362E36223636363A363E36382
:1053800023646364216821F4802121607B492366C2
:10539000C1F808014FF000614FF6FF00784B9160B3
:1053A000D16801400B43D36052F096FDA3690246D9
:1053B0000F20C3F30323A169334493F85C3203F055
:1053C0001F0322FA03F3C5F8303350F07FFF6D4A14
:1053D000D36813F0040FD36840F0A2806A4B002119
:1053E000684A0591D96A21F00101D962DB6A03F0AC
:1053F00001030593936943F440439361936903F474
:1054000040430593059B93699B04FCD54C220021E6
:105410000EA85E4C66F00CFC5D4A42F20303126873
:10542000B3EB124F4FF000030893A4F1140308BF2D
:105430001C46E268002A4DD0534B5249D86A20F0EE
:105440000100D862DB6A03F0010308938B6923F43F
:10545000404313438B618B6903F440430893089BDB
:10546000484A93699F04FCD5414B4FF44037494863
:105470000321D3F8E02042F08002C3F8E0200122AB
:10548000D3F8E03003F080030793079B87610D9BFF
:1054900000910193002361F06DF9022322690EA8A7
:1054A000CDE91733A3781E9201221993A3881A938A
:1054B000A3791B93E3791C93237A1D9300231F93F5
:1054C0004FF48033CDE90E2352F04EFA03283BD03F
:1054D00098B1FEE72B4A2C4B916941F44041916110
:1054E000926902F440420892DA6A42F00102DA62FA
:1054F000DB6A03F001030893B1E7274B1A6812F047
:105500000E0F4DD11A6822F00F0242F002021A600B
:105510001B6803F00F03022B42D0FEE7DC6509E7AE
:1055200023F007031D4C43F00203D360D4F8501757
:1055300006E0D4F850375B1AB3F57A7F3FF64EAFEA
:1055400053689804F5D549E772B6FEF7FDF900BF38
:1055500000ED00E000000000684A000094F10B0834
:10556000000000200400002031650C0800400058B5
:105570000044025820C30A080000002400800051A3
:105580000003FA0500480258000400581C030024D8
:105590000010005C001C025800200052081D00246E
:1055A0006E4A936903F070033F2B05D8936923F08B
:1055B000700343F040039361684AD36903F07003BA
:1055C0003F2B05D8D36923F0700343F04003D36128
:1055D000624AD36903F4E063B3F5806F05D2D369FF
:1055E00023F4E06343F48063D3615C4A136A03F0FD
:1055F00070033F2B05D8136A23F0700343F0400378
:105600001362564B9A69140705D49A6922F00F0267
:1056100042F008029A61514A936923F470639361DE
:10562000136898017FF579AF136941F288304C4CCB
:1056300023F0070343F003031361D4F8501705E088
:10564000D4F850375B1A834200F2BC81136903F02F
:105650003803182BF4D1936903F00F03082B05D9F5
:10566000936923F00F0343F0080393613D4A1368E5
:1056700003F00F03022B0BD9136823F00F0343F041
:1056800002031360136803F00F03022B7FF445AF8E
:10569000324A936903F07003402B05D9936923F0D4
:1056A000700343F0400393612C4AD36903F0700305
:1056B000402B05D9D36923F0700343F04003D36135
:1056C000264AD36903F4E063B3F5806F05D9D36943
:1056D00023F4E06343F48063D361204A136A03F048
:1056E0007003402B00F266811C4F52F0F5FB03461D
:1056F000D5F83403BA69B969C2F30322164496F89F
:105700005C2202F01F02D340C5F8303350F0DEFDBA
:10571000002840F09E811023159017900EA80E933C
:1057200052F022F9002840F044813B680E4A43F0D1
:1057300080033B60D7F8F43043F00203C7F8F4303D
:10574000D7F8F43003F002030493049B136A43F088
:1057500001031362054BD4F850170CE000440258C3
:10576000081D0024002000520004005800E204003C
:10577000013B3FF4E9AED4F850279142F8D0D4F879
:105780005027D4F850379B1A0A2BFAD9C04C4FF443
:1057900080224FF440130EA80E924FF000082F9372
:1057A00060F09EF9D4F8EC3041F20302B9490326C7
:1057B00043F002030EA80227C4F8EC30D4F8EC3012
:1057C00003F002030393039BD4F8943043F00203E5
:1057D000C4F89430D4F8943023F00203C4F8943021
:1057E0000B68AD49B2EB134FAC4BAD4A28BF0A462C
:1057F0005A601A6822F47C5242F400521A601A6805
:1058000042F060021A600E96CDE92B8860F068F9CC
:105810004FF4E0430EA8CDF8E4800E93CDE925883F
:1058200060F05EF918230EA8CDF8B8800E93CDF87D
:10583000CC8060F055F9D4F8D43005220EA843F49A
